:100000000C948B000C94AA000C94AA000C94AA00E7
:100010000C94AA000C94AA000C94AA000C94AA00B8
:100020000C94AA000C94AA000C94AA000C94AA00A8
:100030000C94AA000C94D4030C94AA000C94AA006B
:100040000C94AA000C94AA000C94AA000C94AA0088
:100050000C94AA000C94AA000C94AA000C94AA0078
:100060000C94AA000C94AA000C94AA000C94AA0068
:100070000C94AA000C94AA000C94AA000C94AA0058
:100080000C94AA000C94AA000C94AA006C05AF056D
:10009000AF05AF05AF05AF05AF05AF05AF05AF05C0
:1000A000AF05AF05AF05AF05AF05AF05AF05AF05B0
:1000B000AF05AF05AF05AF05AF05AF05AF05AF05A0
:1000C000AF05AF05AF05AF05AF05AF05AF05AF0590
:1000D000AF05AB05AF05AF05AF05AF05AF05AF0584
:1000E000A405AF05AF05AF05AF05AF05A8057005C1
:1000F000740578057C058005840588058C059005C8
:10010000AF05AF05AF05AF05AF05AF05AF0594056A
:1001100098059C05A00511241FBECFEFD0E4DEBFDB
:10012000CDBF11E0A0E0B1E0E2E2F0E100E00BBF02
:1001300002C007900D92AE32B107D9F721E0AEE2CE
:10014000B1E001C01D92A037B207E1F70E94C205DD
:100150000C940F080C940000CF93DF93CDB7DEB75B
:1001600081E00E94D3000000DF91CF910895CF93EA
:10017000DF93CDB7DEB784E690E00E94770188E395
:100180000E94D30086E00E94D3008FE00E94D3003B
:1001900081E00E94D3008AE090E00E947701000095
:1001A000DF91CF910895CF93DF931F92CDB7DEB744
:1001B00089838BE290E02BE230E0F90120812F7BF4
:1001C000FC01208385E290E02981FC0120838BE201
:1001D00090E02BE230E0F90120812068FC012083CF
:1001E00000008BE290E02BE230E0F90120812F77D4
:1001F000FC01208382E090E00E94770100000F90D4
:10020000DF91CF910895CF93DF931F92CDB7DEB7E3
:1002100089838BE290E02BE230E0F90120812064B9
:10022000FC01208385E290E02981FC0120838BE2A0
:1002300090E02BE230E0F90120812068FC0120836E
:1002400000008BE290E02BE230E0F90120812F7773
:10025000FC01208381E090E00E94770100000F9074
:10026000DF91CF910895CF93DF9300D000D0CDB729
:10027000DEB78A837C836B830E94AC008A8189838A
:1002800011C0898191E0980F99830E9460018B8150
:100290009C819C012F5F3F4F3C832B83FC0180811D
:1002A0000E9403018B819C81FC018081882349F796
:1002B00000000F900F900F900F90DF91CF91089555
:1002C000CF93DF931F92CDB7DEB7898389818131C8
:1002D00028F4898181580E94D30004C08981815506
:1002E0000E94D30000000F90DF91CF910895CF932B
:1002F000DF9300D000D000D0CDB7DEB79E838D83D2
:100300001A82198213C01C821B8206C000008B81D6
:100310009C8101969C838B838B819C818730934049
:10032000ACF389819A8101969A83898329813A81E4
:100330008D819E812817390734F3000026960FB669
:10034000F894DEBF0FBECDBFDF91CF910895CF935C
:10035000DF9300D01F92CDB7DEB789837B836A839A
:1003600089818A3031F48A819B81BC018DE00E94B1
:10037000A70180EC90E0FC018081882F90E08072E2
:100380009927892BB1F386EC90E02981FC01208329
:1003900080E090E00F900F900F90DF91CF91089543
:1003A000CF93DF9300D01F92CDB7DEB789836A83E6
:1003B0004B838B81882371F08A81282F30E081E084
:1003C00090E002C0880F991F2A95E2F7982F898143
:1003D000892B0EC08A81282F30E081E090E002C096
:1003E000880F991F2A95E2F7982F90958981892384
:1003F0000F900F900F90DF91CF910895CF93DF93DF
:1004000000D0CDB7DEB789836A838A81282F30E098
:1004100081E090E002C0880F991F2A95E2F7982F9B
:10042000898189230F900F90DF91CF9108950F93C9
:100430001F93CF93DF93CDB7DEB708E210E040E023
:1004400064E08FEF0E94D001F8018083000086E213
:1004500090E0FC018081809560E00E94FE0188238D
:1004600011F081E3D3C086E290E0FC0180818095A9
:1004700061E00E94FE01882311F084E3C7C086E298
:1004800090E0FC018081809562E00E94FE0188235B
:1004900011F087E3BBC086E290E0FC01808180958B
:1004A00063E00E94FE01882311F08AE2AFC008E2F7
:1004B00010E040E065E08FEF0E94D001F8018083FA
:1004C000000086E290E0FC018081809560E00E945F
:1004D000FE01882311F082E399C086E290E0FC01DE
:1004E0008081809561E00E94FE01882311F085E300
:1004F0008DC086E290E0FC018081809562E00E94E0
:10050000FE01882311F088E381C086E290E0FC01BF
:100510008081809563E00E94FE01882311F080E3D2
:1005200075C008E210E040E066E08FEF0E94D00165
:10053000F8018083000086E290E0FC0180818095D4
:1005400060E00E94FE01882311F083E35FC086E231
:1005500090E0FC018081809561E00E94FE0188238B
:1005600011F086E353C086E290E0FC018081809523
:1005700062E00E94FE01882311F089E347C086E211
:1005800090E0FC018081809563E00E94FE01882359
:1005900011F083E23BC008E210E040E067E08FEF3B
:1005A0000E94D001F8018083000086E290E0FC0107
:1005B0008081809560E00E94FE01882311F081E433
:1005C00025C086E290E0FC018081809561E00E9478
:1005D000FE01882311F082E419C086E290E0FC015C
:1005E0008081809562E00E94FE01882311F083E4FF
:1005F0000DC086E290E0FC018081809563E00E945E
:10060000FE01882311F084E401C080E0DF91CF91E6
:100610001F910F910895CF93DF93CDB7DEB72C973D
:100620000FB6F894DEBF0FBECDBF6D837E838F8380
:10063000988729873A874B875C878D819E81AF8118
:10064000B88529853A854B855C85BC01CD010E9422
:10065000E407DC01CB0189839A83AB83BC83898166
:100660009A81AB81BC81892B8A2B8B2B29F48985BC
:100670009A85AB85BC8511C089859A85AB85BC857B
:100680008D839E83AF83B88789819A81AB81BC813A
:1006900089879A87AB87BC87D0CFBC01CD012C96C8
:1006A0000FB6F894DEBF0FBECDBFDF91CF91089596
:1006B000CF93DF9300D000D0CDB7DEB769837A83C4
:1006C0008B839C8389819A81AB81BC8180930E014D
:1006D00090930F01A0931001B093110180910E012E
:1006E00090910F01A0911001B091110180932F0101
:1006F00090933001A0933101B093320100000F902C
:100700000F900F900F90DF91CF910895CF93DF93CB
:10071000CDB7DEB781E890E02BE0FC01208388E8CC
:1007200090E02DE730E0FC01318320838FE690E0FC
:1007300022E0FC01208384E890E0FC011182108219
:1007400080910E0190910F01A0911001B0911101C3
:1007500080932F0190933001A0933101B093320127
:100760008FE590E02FE530E0F90120812068FC0161
:1007700020830000DF91CF910895CF93DF93CDB711
:10078000DEB781E890E0FC0110820000DF91CF919C
:100790000895CF93DF93CDB7DEB781E080932E012C
:1007A0000000DF91CF9108951F920F9200905F009B
:1007B0000F92112400905B000F922F933F934F9361
:1007C0005F936F937F938F939F93AF93BF93EF93B9
:1007D000FF93CF93DF93CDB7DEB780912F01909138
:1007E0003001A0913101B09132010197A109B10905
:1007F00080932F0190933001A0933101B093320187
:1008000080912F0190913001A0913101B09132017E
:10081000892B8A2B8B2B91F40E94C90380910E01A6
:1008200090910F01A0911001B091110180932F01BF
:1008300090933001A0933101B09332010000DF9119
:10084000CF91FF91EF91BF91AF919F918F917F9148
:100850006F915F914F913F912F910F9000925B00AC
:100860000F9000925F000F901F901895CF93DF9329
:1008700000D01F92CDB7DEB79B838A8380E290E0E1
:10088000FC018081882F90E08170992721E0892BDD
:1008900009F020E029838A819B818130910579F0DC
:1008A0008230910589F0892BC9F481E099819130DA
:1008B00009F080E0882F90E09B838A8312C082E059
:1008C00090E09B838A830DC081E09981992309F48C
:1008D00080E0882F90E09B838A8303C01B821A826A
:1008E00000008A819B818130910519F0029751F0B7
:1008F0000FC09091380181E0992309F080E0809346
:10090000380106C0809112018F5F809312010000B0
:100910008A819B810F900F900F90DF91CF91089566
:10092000CF93DF9300D0CDB7DEB79A8389838981D7
:100930009A81009719F0019761F016C090913801E3
:1009400081E0992309F080E0882F90E09A838983E1
:100950000EC09091380181E0992309F080E0882F42
:1009600090E09A83898303C01A82198200008981EA
:100970009A81009759F0019751F49091330181E0E9
:10098000992309F080E08093330101C00000898140
:100990009A810F900F90DF91CF910895CF93DF93BD
:1009A00000D0CDB7DEB79A83898389819A81009779
:1009B00019F0019761F016C09091380181E09923F8
:1009C00009F080E0882F90E09A8389830EC090918F
:1009D000380181E0992309F080E0882F90E09A8324
:1009E000898303C01A821982000089819A81009745
:1009F00059F0019751F49091340181E0992309F065
:100A000080E08093340101C0000089819A810F90B9
:100A10000F90DF91CF910895CF93DF9300D01F9275
:100A2000CDB7DEB79B838A838A819B81892B19F49A
:100A30001B821A8203C01B821A8200008A819B815A
:100A4000892BA1F4809135018F3121F080913501FE
:100A500089830BC080913401882F90E0880F991F03
:100A6000982F80913301892B8983000085E290E0E3
:100A70002981FC0120838A819B810F900F900F9028
:100A8000DF91CF910895CF93DF9300D01F92CDB720
:100A9000DEB79B838A838A819B81892B09F066C09C
:100AA0000E94170289838981809336018981882F6A
:100AB00090E0092E000CAA0BBB0B40E050E024E4B0
:100AC00030E0841B950B2817390708F448C08A5B6F
:100AD0009F4FFC010C9406088FE18093350143C0C1
:100AE00081E0809335013FC082E0809335013BC0B7
:100AF00083E08093350137C084E08093350133C0B3
:100B000085E0809335012FC086E0809335012BC0AE
:100B100087E08093350127C088E08093350123C0AA
:100B200089E0809335011FC08AE0809335011BC0A6
:100B30008BE08093350117C08CE08093350113C0A2
:100B40008DE0809335010FC08EE0809335010BC09E
:100B50001092350108C08FE08093350104C08BE10D
:100B60008093350100001B821A8203C01B821A8207
:100B7000000000008A819B810F900F900F90DF9101
:100B8000CF9108950F931F93CF93DF93CDB7DEB727
:100B900063970FB6F894DEBF0FBECDBF81E290E041
:100BA000FC01108282E290E02FEFFC01208384E2BE
:100BB00090E02FEFFC01208385E290E0FC011082A1
:100BC00087E290E020EFFC01208388E290E02FE0B4
:100BD000FC0120838AE290E02FEFFC0120838BE26E
:100BE00090E0FC0110828AE0E3E2F1E0DE011A9677
:100BF00001900D928A95E1F785E090E098878F83C8
:100C00008FEF898789858093390182E390E0A0E0A6
:100C1000B0E080933A0190933B01A0933C01B093E4
:100C20003D0180913A0190913B01A0913C01B0912E
:100C30003D0180933E0190933F01A0934001B0930A
:100C4000410186E394E090934301809342018985BA
:100C50008093440184EF91E0A0E0B0E080934501EF
:100C600090934601A0934701B093480180914501BC
:100C700090914601A0914701B091480180934901AC
:100C800090934A01A0934B01B0934C0180E994E00A
:100C900090934E0180934D01898580934F0188EE9A
:100CA00093E0A0E0B0E08093500190935101A093B5
:100CB0005201B09353018091500190915101A09144
:100CC0005201B09153018093540190935501A09328
:100CD0005601B09357018EEC94E0909359018093A4
:100CE0005801898580935A018AE090E0A0E0B0E045
:100CF00080935B0190935C01A0935D01B0935E01D2
:100D000080915B0190915C01A0915D01B0915E01C9
:100D100080935F0190936001A0936101B0936201A1
:100D20008CE095E0909364018093630189858093C2
:100D3000650184E690E0A0E0B0E0809366019093C6
:100D40006701A0936801B093690180916601909159
:100D50006701A0916801B091690180936A01909345
:100D60006B01A0936C01B0936D0183E495E09093C7
:100D70006F0180936E018A859B85FC018181928140
:100D8000A381B48189839A83AB83BC8381E090E0A3
:100D90009E838D8325C08D819E81880F991F9E0122
:100DA0002F5F3F4F820F931F0996FC018081918135
:100DB000FC01218132814381548189819A81AB81F7
:100DC000BC81BC01CD010E940B03DC01CB018983F6
:100DD0009A83AB83BC838D819E8101969E838D8394
:100DE0002D813E818F81988528173907A0F20E94B6
:100DF000B70063E171E081E00E94330189819A814B
:100E0000AB81BC81BC01CD010E9458030E948603C6
:100E10001E821D82A0C08D819E81880F991F9E0118
:100E20002F5F3F4F820F931F0996FC0180819181B4
:100E3000FC0125813681478150858D819E81880FF7
:100E4000991FBE016F5F7F4F860F971F0996FC01A8
:100E500080819181FC0181819281A381B4812817D5
:100E600039074A075B0709F045C08D819E81880FCD
:100E7000991F9E012F5F3F4F820F931F0996FC0120
:100E8000008111818D819E81880F991F9E012F5FA6
:100E90003F4F820F931F0996FC0180819181FC01D5
:100EA000218532858D819E81880F991FAE014F5F0C
:100EB0005F4F840F951F0996FC0180819181FC0191
:100EC0008081082E000C990BF9010995F8018083A7
:100ED0008D819E81880F991F9E012F5F3F4F820F4A
:100EE000931F0996FC0180819181FC011582168275
:100EF000178210868D819E81880F991F9E012F5F1A
:100F00003F4F820F931F0996FC01608171818D8193
:100F10009E81880F991F9E012F5F3F4F820F931F65
:100F20000996FC0180819181FC01258136814781F0
:100F3000508589819A81AB81BC81820F931FA41F48
:100F4000B51FFB0185839683A783B0878D819E8122
:100F500001969E838D832D813E818F8198852817F0
:100F6000390708F458CF809112010E9460018091E6
:100F700036018823D9F0809137018823B9F481E0C4
:100F80008093370180913601882F90E00E94030101
:100F900080911201803121F481E0809312010CC014
:100FA000809112018F5F8093120106C080913601FB
:100FB000882311F410923701000080912E018823BC
:100FC000E1F310922E0124CFA1E21A2EAA1BBB1B23
:100FD000FD010DC0AA1FBB1FEE1FFF1FA217B30705
:100FE000E407F50720F0A21BB30BE40BF50B661F1B
:100FF000771F881F991F1A9469F7609570958095DF
:1010000090959B01AC01BD01CF010895EE0FFF1F2C
:101010000024001C0BBE0790F691E02D0994F89473
:02102000FFCF00
:101022000000000200000000A70100000000010013
:10103200000001436F6E67726174756C6174696F51
:0E1042006E7300390144014F015A016501002F
:00000001FF
