:100000000C9446000C945D000C945D000C945D0013
:100010000C945D000C945D000C945D000C945D00EC
:100020000C945D000C945D000C945D000C945D00DC
:100030000C945D000C945D000C945D000C945D00CC
:100040000C945D000C945D000C945D000C945D00BC
:100050000C945D000C945D000C945D000C945D00AC
:100060000C945D000C945D000C945D000C945D009C
:100070000C945D000C945D000C945D000C945D008C
:100080000C945D000C945D000C945D0011241FBE67
:10009000CFEFD0E4DEBFCDBF11E0A0E0B1E0E0E4FF
:1000A000F2E000E00BBF02C007900D92AE30B10746
:1000B000D9F70E9499000C941E010C940000CF9374
:1000C000DF9300D01F92CDB7DEB789837B836A832D
:1000D00089818A3031F48A819B81BC018DE00E9444
:1000E0005F0080EC90E0FC018081882F90E08072BE
:1000F0009927892BB1F386EC90E02981FC012083BC
:1001000080E090E00F900F900F90DF91CF910895D5
:10011000CF93DF93CDB7DEB78AE790E02AE730E0F0
:10012000F9012081206EFC0120830000DF91CF9136
:100130000895CF93DF9300D0CDB7DEB781E290E092
:10014000FC01108282E290E02FEFFC01208384E228
:1001500090E02FEFFC01208385E290E0FC0110820B
:100160008AE290E02FEFFC0120838BE290E0FC011B
:10017000108280E290E020E230E0F90120812095B9
:10018000FC0120830E94880088E790E0FC018081C8
:1001900091819A83898389819A818F3A910528F088
:1001A00085E290E02FEFFC01208389819A818939D3
:1001B000910528F085E290E02FE7FC0120838981FA
:1001C0009A818438910528F085E290E02FE3FC01C4
:1001D000208389819A818E36910528F085E290E00E
:1001E0002FE1FC01208389819A818935910528F0CE
:1001F00085E290E02FE0FC01208389819A8183349D
:10020000910528F085E290E027E0FC0120838981B8
:100210009A818E9728F085E290E023E0FC0120830C
:1002200089819A81489728F085E290E021E0FC01DD
:10023000208385E290E0FC011082A6CFF894FFCFE6
:0E02400000000002000000005F00000000004F
:00000001FF
