:100000000C9456000C9475000C9475000C947500BB
:100010000C9475000C9475000C9475000C9475008C
:100020000C9475000C9475000C9475000C9475007C
:100030000C9475000C94E9010C9475000C947500F7
:100040000C9475000C9475000C9475000C9475005C
:100050000C9475000C9475000C9475000C9475004C
:100060000C9475000C9475000C9475000C9475003C
:100070000C9475000C9475000C9475000C9475002C
:100080000C9475000C9475000C94750093029A0200
:10009000C202C902D002D702F4020D037903790328
:1000A00040034A03540379035703670311241FBE17
:1000B000CFEFD0E4DEBFCDBF11E0A0E0B1E0ECEACD
:1000C000F7E000E00BBF02C007900D92A431B1072A
:1000D000D9F721E0A4E1B1E001C01D92AD31B20732
:1000E000E1F70E9486030C94D4030C940000CF9394
:1000F000DF93CDB7DEB781E00E949E000000DF9164
:10010000CF910895CF93DF93CDB7DEB784E690E02B
:100110000E94420188E30E949E0086E00E949E00A9
:100120008FE00E949E0081E00E949E008AE090E0A5
:100130000E9442010000DF91CF910895CF93DF9399
:100140001F92CDB7DEB789838BE290E02BE230E0DF
:10015000F90120812F7BFC01208388E290E0298136
:10016000FC0120838BE290E02BE230E0F90120815A
:100170002068FC01208300008BE290E02BE230E05D
:10018000F90120812F77FC01208382E090E00E941A
:10019000420100000F90DF91CF910895CF93DF933C
:1001A0001F92CDB7DEB789838BE290E02BE230E07F
:1001B000F90120812064FC01208388E290E02981FC
:1001C000FC0120838BE290E02BE230E0F9012081FA
:1001D0002068FC01208300008BE290E02BE230E0FD
:1001E000F90120812F77FC01208381E090E00E94BB
:1001F000420100000F90DF91CF910895CF93DF93DC
:1002000000D000D0CDB7DEB78A837C836B830E9499
:1002100077008A81898311C0898191E0980F998341
:100220000E942B018B819C819C012F5F3F4F3C835F
:100230002B83FC0180810E94CE008B819C81FC017C
:100240008081882349F700000F900F900F900F9046
:10025000DF91CF910895CF93DF931F92CDB7DEB793
:1002600089838981813128F4898181580E949E0087
:1002700004C0898181550E949E0000000F90DF918B
:10028000CF910895CF93DF9300D000D000D0CDB7A9
:10029000DEB79E838D831A82198213C01C821B8253
:1002A00006C000008B819C8101969C838B838B818F
:1002B0009C8187309340ACF389819A8101969A831F
:1002C000898329813A818D819E812817390734F3EA
:1002D000000026960FB6F894DEBF0FBECDBFDF91AB
:1002E000CF910895CF93DF9300D01F92CDB7DEB7A3
:1002F00089837B836A8389818A3031F48A819B81F7
:10030000BC018DE00E94720180EC90E0FC018081D4
:10031000882F90E080729927892BB1F386EC90E0CA
:100320002981FC01208380E090E00F900F900F90D6
:10033000DF91CF910895CF93DF93CDB7DEB781E8FA
:1003400090E02BE0FC01208388E890E02DE730E08E
:10035000FC01318320838FE690E022E0FC012083C2
:1003600084E890E0FC011182108280910E0190914E
:100370000F01A0911001B09111018093150190938C
:100380001601A0931701B09318018FE590E02FE5B7
:1003900030E0F90120812068FC0120830000DF911A
:1003A000CF910895CF93DF93CDB7DEB781E890E08A
:1003B000FC0110820000DF91CF910895CF93DF936D
:1003C000CDB7DEB781E0809314010000DF91CF91BB
:1003D00008951F920F9200905F000F9211240090D9
:1003E0005B000F922F933F934F935F936F937F9395
:1003F0008F939F93AF93BF93EF93FF93CF93DF932D
:10040000CDB7DEB78091150190911601A09117012B
:10041000B09118010197A109B1098093150190933A
:100420001601A0931701B0931801809115019091C6
:100430001601A0911701B0911801892B8A2B8B2BE3
:1004400091F40E94DE0180910E0190910F01A09124
:100450001001B09111018093150190931601A093A2
:100460001701B09318010000DF91CF91FF91EF9138
:10047000BF91AF919F918F917F916F915F914F91BC
:100480003F912F910F9000925B000F9000925F00C0
:100490000F901F901895CF93DF9300D000D0CDB769
:1004A000DEB769837A838B839C8389819A81AB8150
:1004B000BC8180930E0190930F01A0931001B09323
:1004C000110180910E0190910F01A0911001B09146
:1004D00011018093150190931601A0931701B09319
:1004E000180100000F900F900F900F90DF91CF91A7
:1004F0000895CF93DF93CDB7DEB780911B01909124
:100500001C01CC01A0E0B0E040E050E027E030E08A
:10051000841B950B2817390708F498C08A5B9F4FF6
:10052000FC010C94CB0381E090E090931C0180933C
:100530001B0191C080911901813039F482E090E073
:1005400090931C0180931B0186C080911901823019
:1005500039F483E090E090931C0180931B017BC0F1
:1005600080911901833039F484E090E090931C016C
:1005700080931B0170C081E090E090931C018093F8
:100580001B0169C086E090E090931C0180931B01E1
:1005900062C087E090E090931C0180931B015BC0D8
:1005A00085E090E090931C0180931B0154C08091E2
:1005B0001901833039F484E090E090931C0180931A
:1005C0001B0149C080911901882339F481E090E032
:1005D00090931C0180931B013EC085E090E09093B6
:1005E0001C0180931B0137C080911901882361F0A1
:1005F00086E090E090931C0180931B0180911A018A
:100600008F5F80931A0127C081E090E090931C01D6
:1006100080931B0110921A011EC08091190188233A
:1006200061F087E090E090931C0180931B01809122
:100630001A018F5F80931A010EC081E090E09093C1
:100640001C0180931B0110921A0105C010921C011D
:1006500010921B01000080911B0190911C01CC01A4
:10066000A0E0B0E040E050E027E030E0841B950BD4
:1006700028173907E0F1825B9F4FFC010C94CB03F4
:10068000809112018930B8F5809112018F5F8093BB
:10069000120131C080911201882379F180911201F9
:1006A00081508093120129C0109212012BC08091B9
:1006B0001A018A3021F580911201893000F580916C
:1006C00012018F5F8093120110921A0118C080915D
:1006D0001A018A30B1F480911201882391F080913F
:1006E000120181508093120110921A010AC0000079
:1006F00009C0000007C0000005C0000003C00000E2
:1007000001C000000000DF91CF910895CF93DF93E7
:10071000CDB7DEB781E290E0FC01108282E290E08A
:100720002FEFFC01208387E290E02FEFFC01208374
:1007300088E290E0FC0110828AE290E02FEFFC0159
:1007400020838BE290E0FC0110820E94820064E62C
:1007500070E080E090E00E944B020E949B011092AA
:100760001C0110921B0180E290E0FC0180818095C9
:10077000809319010E94790280911201805D0E948C
:10078000CE000000809114018823E1F3109214013F
:100790000E947700E8CFEE0FFF1F0024001C0BBE65
:0C07A0000790F691E02D0994F894FFCF2B
:1007AC0000000002000000007201000000000100C7
:0407BC000000070032
:00000001FF
