:100000000C9446000C9465000C9465000C946500FB
:100010000C9465000C9465000C9465000C946500CC
:100020000C9465000C9465000C9465000C946500BC
:100030000C9465000C9465000C9465000C946500AC
:100040000C9465000C9465000C9465000C9465009C
:100050000C9465000C9465000C9465000C9465008C
:100060000C9465000C9465000C9465000C9465007C
:100070000C9465000C9465000C9465000C9465006C
:100080000C9465000C9465000C94650011241FBE4F
:10009000CFEFD0E4DEBFCDBF11E0A0E0B1E0E8E1FA
:1000A000F8E000E00BBF02C007900D92AE32B1073E
:1000B000D9F721E0AEE2B1E001C01D92A833B2074A
:1000C000E1F70E944F020C940A040C940000CF93B5
:1000D000DF9300D01F92CDB7DEB789837B836A831D
:1000E00089818A3031F48A819B81BC018DE00E9434
:1000F000670080EC90E0FC018081882F90E08072A6
:100100009927892BB1F386EC90E02981FC012083AB
:1001100080E090E00F900F900F90DF91CF910895C5
:100120000F931F93CF93DF9300D000D0CDB7DEB7EE
:1001300069837A838B839C83809132019091330110
:10014000A0913401B09135019C01AD0169817A81A2
:100150008B819C810E947602882309F477C020E07D
:1001600030E0A90169817A818B819C810E947602AD
:10017000882351F481E990E021E930E0F901208100
:100180002870FC01208309C081E990E021E930E07A
:10019000F90120812360FC01208328E539E344E74D
:1001A0005FE369817A818B819C810E94760288233A
:1001B00044F488E990E02FEF3FEFFC013183208386
:1001C00034C020E034E244EF56E469817A818B81C7
:1001D0009C810E949803181634F488E990E0FC0191
:1001E0001182108222C008E910E020E030E040E0F7
:1001F00053E469817A818B819C810E949D03DC019B
:10020000CB019C01AD0160E074E284EF9AE40E94AE
:100210007B02DC01CB01BC01CD010E94ED02DC01BF
:10022000CB010197F8019183808384E990E0FC0180
:100230001182108289819A81AB81BC8180933201C5
:1002400090933301A0933401B093350100000F90D7
:100250000F900F900F90DF91CF911F910F91089504
:10026000CF93DF93CDB7DEB780E990E020E4FC01C7
:10027000208381E990E02BE0FC01208360E070E0C6
:10028000CB010E9490000000DF91CF910895CF93A1
:10029000DF93CDB7DEB780E990E0FC01108281E901
:1002A00090E0FC0110820000DF91CF910895CF9380
:1002B000DF93CDB7DEB78091360190913701823060
:1002C0009105A9F18330910528F4009779F0019701
:1002D000C1F07EC08430910509F46CC08430910572
:1002E00008F461C0059709F46CC072C081E090E029
:1002F00090933701809336011092300110922F01B4
:100300006CC080912E01882359F080912E0180933A
:10031000310182E090E090933701809336015DC017
:1003200081E090E0909337018093360156C0809130
:100330002E01882339F082E090E09093370180937A
:1003400036014BC080913101813039F483E090E077
:10035000909337018093360140C080913101823003
:1003600059F480912F01882339F085E090E0909333
:1003700037018093360116C080913101843059F4E1
:1003800080912F01882339F084E090E09093370129
:100390008093360107C081E090E09093370180930D
:1003A00036011BC01AC081E090E090933701809322
:1003B000360113C081E090E09093370180933601BD
:1003C0000CC081E090E0909337018093360105C026
:1003D0001092370110923601000080913601909101
:1003E00037018230910509F44FC08330910530F414
:1003F000009709F44BC0019751F04DC0843091052E
:1004000079F18430910508F10597A1F144C08091FC
:100410002F018823A1F080913001882F90E0880F70
:10042000991F880F991F825F9E4FFC0180819181E7
:10043000A281B381BC01CD010E9490002CC060E07C
:1004400070E0CB010E94900026C080912F0188238C
:1004500021F481E080932F011EC010922F011BC058
:10046000809130018730A0F4809130018F5F8093BC
:1004700030010EC080913001882361F080913001FD
:1004800081508093300106C0000005C0000003C009
:10049000000001C000000000DF91CF910895CF93CC
:1004A000DF93CDB7DEB781E290E0FC01108282E2FB
:1004B00090E02FEFFC01208384E290E02FEFFC011D
:1004C000208385E290E020E4FC0120830E9430013B
:1004D000109237011092360180E290E0FC01808199
:1004E000809580932E010E945701F6CF0E9423032E
:1004F00008F481E008950E948F020C945E030E942C
:10050000570358F00E94500340F029F45F3F29F050
:100510000C94470351110C9492030C944D030E94C8
:100520006F0368F39923B1F3552391F3951B550B92
:10053000BB27AA2762177307840738F09F5F5F4FB6
:10054000220F331F441FAA1FA9F335D00E2E3AF0F5
:10055000E0E832D091505040E695001CCAF72BD00D
:10056000FE2F29D0660F771F881FBB1F261737075E
:100570004807AB07B0E809F0BB0B802DBF01FF2790
:1005800093585F4F3AF09E3F510578F00C94470323
:100590000C9492035F3FE4F3983ED4F386957795ED
:1005A0006795B795F7959F5FC9F7880F911D969549
:1005B000879597F90895E1E0660F771F881FBB1FA5
:1005C000621773078407BA0720F0621B730B840B52
:1005D000BA0BEE1F88F7E09508950E94F402689424
:1005E000B1110C94920308950E94770388F09F57ED
:1005F00098F0B92F9927B751B0F0E1F0660F771F47
:10060000881F991F1AF0BA95C9F714C0B13091F03C
:100610000E949103B1E008950C949103672F782F05
:100620008827B85F39F0B93FCCF386957795679501
:10063000B395D9F73EF490958095709561957F4F6D
:100640008F4F9F4F0895990F0008550FAA0BE0E8B0
:10065000FEEF16161706E807F907C0F01216130684
:10066000E407F50798F0621B730B840B950B39F4C4
:100670000A2661F0232B242B252B21F408950A262A
:1006800009F4A140A6958FEF811D811D089597F96A
:100690009F6780E870E060E008959FEF80EC089528
:1006A00000240A9416161706180609060895002451
:1006B0000A9412161306140605060895092E0394CB
:1006C000000C11F4882352F0BB0F40F4BF2B11F43F
:1006D00060FF04C06F5F7F4F8F4F9F4F089557FD9E
:1006E0009058440F551F59F05F3F71F04795880FA0
:1006F00097FB991F61F09F3F79F087950895121637
:1007000013061406551FF2CF4695F1DF08C01616E2
:1007100017061806991FF1CF869571056105089493
:100720000895E894BB2766277727CB0197F90895AA
:100730000E94230308F48FEF08950E94B0030C94E5
:100740005E030E94500338F00E94570320F0952367
:1007500011F00C9447030C944D0311240C94920354
:100760000E946F0370F3959FC1F3950F50E0551FE2
:10077000629FF001729FBB27F00DB11D639FAA27F6
:10078000F00DB11DAA1F649F6627B00DA11D661F45
:10079000829F2227B00DA11D621F739FB00DA11D66
:1007A000621F839FA00D611D221F749F3327A00D20
:1007B000611D231F849F600D211D822F762F6A2FBC
:1007C00011249F5750409AF0F1F088234AF0EE0F21
:1007D000FF1FBB1F661F771F881F91505040A9F74E
:1007E0009E3F510580F00C9447030C9492035F3FA9
:1007F000E4F3983ED4F3869577956795B795F7958A
:10080000E7959F5FC1F7FE2B880F911D9695879501
:0808100097F90895F894FFCF59
:100818000000000200000000670000000000A4D0F3
:1008280082437BD49243A4D0A443719DAE4300007D
:0E083800C4430000DC430080F64300D00244BD
:00000001FF
