:100000000C9446000C9465000C9465000C946500FB
:100010000C9465000C9465000C9465000C946500CC
:100020000C9465000C9465000C9465000C946500BC
:100030000C9465000C94A1020C9465000C9465006E
:100040000C9465000C9465000C9465000C9465009C
:100050000C9465000C9465000C9465000C9465008C
:100060000C9465000C9465000C9465000C9465007C
:100070000C9465000C9465000C9465000C9465006C
:100080000C9465000C9465000C94650011241FBE4F
:10009000CFEFD0E4DEBFCDBF11E0A0E0B1E0E0E5FE
:1000A000F9E000E00BBF02C007900D92AA31B10742
:1000B000D9F721E0AAE1B1E001C01D92A635B2074F
:1000C000E1F70E9431030C94A6040C940000CF9336
:1000D000DF9300D01F92CDB7DEB789837B836A831D
:1000E00089818A3031F48A819B81BC018DE00E9434
:1000F000670080EC90E0FC018081882F90E08072A6
:100100009927892BB1F386EC90E02981FC012083AB
:1001100080E090E00F900F900F90DF91CF910895C5
:10012000CF93DF9300D0CDB7DEB79A8389838981DF
:100130009A818130910589F0823091051CF4892BD8
:1001400039F023C08230910581F00397B1F01DC0D2
:1001500081E090E09A83898318C081E080931F0139
:1001600082E090E09A83898310C082E080931F012F
:1001700083E090E09A83898308C084E080931F0124
:1001800081E090E09A838983000089819A810F90B1
:100190000F90DF91CF910895CF93DF9300D0CDB72B
:1001A000DEB79A83898389819A81009719F0019734
:1001B00031F014C081E090E09A8389830FC0809170
:1001C0002001882321F481E08093200102C0109255
:1001D000200181E090E09A838983000089819A81DF
:1001E0000F900F90DF91CF910895CF93DF9300D0C0
:1001F000CDB7DEB79A83898389819A818130910551
:1002000061F08230910509F453C0892B09F05FC079
:1002100081E090E09A8389835AC0809122018430E2
:1002200059F480912101882321F481E080932101F8
:100230004DC0109221014AC0809122018130C1F449
:10024000809112018F5F8093120180911201882F9B
:1002500090E0A0E0B0E08093400190934101A09332
:100260004201B093430182E090E09A8389832EC0DB
:1002700080912201823051F580911201823028F064
:100280008091120181508093120180911201882F78
:1002900090E0A0E0B0E08093400190934101A093F2
:1002A0004201B093430182E090E09A8389830EC0BB
:1002B00080912201882329F082E090E09A8389834B
:1002C00006C081E090E09A83898301C000008981A3
:1002D0009A810F900F90DF91CF910895CF93DF9384
:1002E00000D0CDB7DEB79A83898389819A81009740
:1002F00019F0019731F01CC081E090E09A83898366
:1003000017C080912101882F90E09C01220F331F9C
:1003100080912001882F90E0820F931F982F990FD2
:10032000990F990F80911F01890F8093230100007D
:1003300089819A810F900F90DF91CF910895CF938B
:10034000DF93CDB7DEB781E890E02BE0FC0120839E
:1003500088E890E02DE730E0FC01318320838FE6D0
:1003600090E022E0FC01208384E890E0FC0111820F
:10037000108280910E0190910F01A0911001B09117
:10038000110180931B0190931C01A0931D01B09358
:100390001E018FE590E02FE530E0F9012081206813
:1003A000FC0120830000DF91CF910895CF93DF936C
:1003B000CDB7DEB781E890E0FC0110820000DF914C
:1003C000CF9108950F931F93CF93DF931F92CDB7D3
:1003D000DEB71982A6C08981282F30E0C901880FB5
:1003E000991F820F931F880F991F880F991F845D93
:1003F0009E4FFC0120813181428153818981682F88
:1004000070E0CB01880F991F860F971F880F991FE7
:10041000880F991F885D9E4FFC0180819181A28188
:10042000B381281739074A075B0708F449C0898157
:10043000082F10E08981282F30E0C901880F991F0B
:10044000820F931F880F991F880F991F805D9E4F01
:10045000FC01408151818981282F30E0C901880F3A
:10046000991F820F931F880F991F880F991F8A5D0C
:100470009E4FFC0180819181FA0109959C01C80180
:10048000880F991F800F911F880F991F880F991F40
:100490008A5D9E4FFC01318320838981282F30E0C3
:1004A000C901880F991F820F931F880F991F880F0A
:1004B000991F845D9E4FFC0110821182128213826B
:1004C0008981682F70E08981282F30E0C901880F69
:1004D000991F820F931F880F991F880F991F845DA2
:1004E0009E4FFC0180819181A281B38121E030E0A7
:1004F00040E050E0280F391F4A1F5B1FCB01880FD7
:10050000991F860F971F880F991F880F991F845D69
:100510009E4FFC01208331834283538389818F5F07
:1005200089838981282F30E084E090E028173907FB
:1005300008F451CF00000F90DF91CF911F910F91E0
:1005400008951F920F9200905F000F921124009067
:100550005B000F922F933F934F935F936F937F9323
:100560008F939F93AF93BF93EF93FF93CF93DF93BB
:10057000CDB7DEB780911B0190911C01A0911D01A8
:10058000B0911E010197A109B10980931B019093BD
:100590001C01A0931D01B0931E0180911B0190913D
:1005A0001C01A0911D01B0911E01892B8A2B8B2B60
:1005B00091F40E94E20180910E0190910F01A091AF
:1005C0001001B091110180931B0190931C01A09325
:1005D0001D01B0931E010000DF91CF91FF91EF91BB
:1005E000BF91AF919F918F917F916F915F914F914B
:1005F0003F912F910F9000925B000F9000925F004F
:100600000F901F901895CF93DF9300D000D0CDB7F7
:10061000DEB769837A838B839C8389819A81AB81DE
:10062000BC8180930E0190930F01A0931001B093B1
:10063000110180910E0190910F01A0911001B091D4
:10064000110180931B0190931C01A0931D01B09395
:100650001E0100000F900F900F900F90DF91CF912F
:100660000895CF93DF931F92CDB7DEB781E290E07C
:10067000FC01108282E290E02FEFFC01208384E2F3
:1006800090E02FEFFC01208385E290E0FC011082D6
:1006900019828981282F30E0C901880F991F820FA4
:1006A000931F880F991F880F991F8A5D9E4FFC0129
:1006B000118210828981282F30E0C901880F991F8B
:1006C000820F931F880F991F880F991F9C01285D27
:1006D0003E4F88EE93E0A0E0B0E0F9018083918383
:1006E000A283B3838981282F30E0C901880F991F25
:1006F000820F931F880F991F880F991F845D9E4F4B
:10070000FC0110821182128213828981282F30E02D
:10071000C901880F991F820F931F880F991F880F97
:10072000991F805D9E4F2CEC30E0FC0131832083CB
:1007300089818F5F89838981282F30E0C901880FE3
:10074000991F820F931F880F991F880F991F8A5D29
:100750009E4FFC01118210828981282F30E0C9014F
:10076000880F991F820F931F880F991F880F991F59
:100770009C01285D3E4F8CE291E0A0E0B0E0F901E1
:1007800080839183A283B3838981282F30E0C901BC
:10079000880F991F820F931F880F991F880F991F29
:1007A000845D9E4FFC011082118212821382898126
:1007B000282F30E0C901880F991F820F931F880FDF
:1007C000991F880F991F805D9E4F20E930E0FC0142
:1007D0003183208389818F5F89838981282F30E04D
:1007E000C901880F991F820F931F880F991F880FC7
:1007F000991F8A5D9E4FFC01118210828981282FEA
:1008000030E0C901880F991F820F931F880F991F2D
:10081000880F991F9C01285D3E4F82E090E0A0E088
:10082000B0E0F90180839183A283B3838981282F6B
:1008300030E0C901880F991F820F931F880F991FFD
:10084000880F991F845D9E4FFC01108211821282D5
:1008500013828981282F30E0C901880F991F820FE8
:10086000931F880F991F880F991F805D9E4F25EF5A
:1008700030E0FC013183208389818F5F8983898106
:10088000282F30E0C901880F991F820F931F880F0E
:10089000991F880F991F8A5D9E4FFC01118210825B
:1008A0008981282F30E0C901880F991F820F931F7B
:1008B000880F991F880F991F9C01285D3E4F81E08A
:1008C00090E0A0E0B0E0F90180839183A283B3833C
:1008D0008981282F30E0C901880F991F820F931F4B
:1008E000880F991F880F991F845D9E4FFC0110820D
:1008F0001182128213828981282F30E0C901880F6A
:10090000991F820F931F880F991F880F991F805D71
:100910009E4F2EE631E0FC013183208381E090E0A0
:10092000A0E0B0E0BC01CD010E9403030E949F0142
:1009300080E290E0FC01808180958093220185E235
:1009400090E020912301FC012083F2CFF894FFCFA7
:10095000000000020000000067000000000001002D
:0A0960000000010100000004000087
:00000001FF
